:100000000C942A000C9447000C9447000C94470071
:100010000C9447000C9447000C9447000C94470044
:100020000C9447000C9447000C9447000C94470034
:100030000C9447000C9447000C9447000C94470024
:100040000C9447000C9447000C9447000C94470014
:100050000C94470011241FBECFE5D8E0DEBFCDBF12
:1000600013E0A0E6B0E0E8E4FEE002C005900D92E7
:10007000A633B107D9F713E0A6E3B3E001C01D92A0
:10008000A639B107E1F70E94D9050C9422070C9418
:1000900000009B01AC018AB188618AB980B586688D
:1000A00080BD94E0220F331F441F551F9A95D1F74E
:1000B00060E074E284EF90E00E94BB06822F8150E2
:1000C00089B92150304040405040232F342F452FD4
:1000D000552720BD08955D9BFECF8CB908951F93D1
:1000E000CF93DF93EC0110E003C00E946B001F5F11
:1000F000FE01E10FF11D80818823B9F7DF91CF91D7
:100100001F9108955F9BFECF8CB108951ABA87E8BE
:1001100086B980E487B9089590E497B997B18F7054
:10012000892B87B9369A349BFECF85E38A95F1F700
:10013000000024B135B1C901089584E083BF8BE08C
:1001400090E03EEC21E032BF08B600FEFDCF28BFB4
:100150000197C9F713BE08950F931F93CF93DF93B1
:100160008C01C0E0D0E035C0E0914C03F0914D032C
:10017000EE5EFC4F808185BB80911E0382BB0E9496
:100180009D00E0913C03F0913D03EE5EFC4F8081C9
:1001900085BB80911F0382BB0E949D00E0914403B8
:1001A000F0914503EE5EFC4F808185BB809120037A
:1001B00082BB0E949D00E0918903F0918A03EE5E6C
:1001C000FC4F808185BB8091210382BB0E949D00F2
:1001D0002196C017D10744F2DF91CF911F910F9163
:1001E00008958091220382BB80911D0385BB80E628
:1001F00090E00E946F008AE00E946B008DE00E94F8
:100200006B008CE790E00E946F008AE00E946B0018
:100210008DE00E946B0088E990E00E946F008AE008
:100220000E946B008DE00E946B008AE00E946B00D0
:100230008DE00E946B000E94820090E09093660324
:100240008093650383359105B1F4459B11C089EA1C
:1002500090E00E946F008AE00E946B008DE00E9497
:100260006B0082E090E090938E0380938D030DC02D
:100270008DEB90E002C084EE90E00E946F008AE077
:100280000E946B008DE00E946B008AE00E946B0070
:100290008DE00E946B0008958AEF90E00E946F004D
:1002A0008AE00E946B008DE00E946B008CE790E07A
:1002B0000E946F008AE00E946B008DE00E946B003C
:1002C00084E191E00E946F008AE00E946B008DE063
:1002D0000E946B0080911E0382BB8091140385BB3A
:1002E0000E94820090E0C097909349038093480356
:1002F00061E773E04AE050E00E94F10681E793E095
:100300000E946F000E94820090E0C097909370035B
:1003100080936F032FEF8D3D920729F410927003A5
:1003200010926F0322C061E773E04AE050E00E9440
:10033000F10681E793E00E946F008AE00E946B0063
:100340008DE00E946B0080914803909149039C01CD
:10035000220F331F43E0880F991F4A95E1F7280FBA
:10036000391F309349032093480380916F03909184
:1003700070032091480330914903820F931F90939B
:100380006403809363038AE00E946B008DE00E9407
:100390006B0080916303909164039C012250304074
:1003A0002F303105D8F461E773E04AE050E00E9455
:1003B000F1068BE491E00E946F0081E793E00E94D8
:1003C0006F008AE00E946B008DE00E946B0083E06A
:1003D00090E090938E0380938D030EC08CE591E0A6
:1003E0000E946F0081E793E00E946F008AE00E9404
:1003F0006B008DE00E946B008AE00E946B008DE034
:100400000E946B0008950F931F93CF93DF9381E7B2
:1004100091E00E946F008AE00E946B008DE00E94D4
:100420006B0085EA91E00E946F008AE00E946B00F9
:100430008DE00E946B008091150385BB10925003E4
:1004400010924F03C3E0D0E009E010E072C00E94B8
:10045000820090E0C0979093880380938703823056
:10046000910530F08330910519F08730910539F509
:10047000E0914F03F0915003EE0FFF1FEF5AFC4F36
:100480009183808361E773E04AE050E00E94F106C7
:100490008BE491E00E946F0081E793E00E946F007F
:1004A0008AE00E946B008DE00E946B0080914F03F8
:1004B00090915003909347038093460331C08B3350
:1004C0009105D9F485EB91E00E946F008AE00E94CB
:1004D0006B008DE00E946B00D0938E03C0938D0360
:1004E00080914F039091500390934703809346036C
:1004F0001093500300934F0313C08DEB91E00E94C3
:100500006F008AE00E946B008DE00E946B0080917A
:100510004F039091500301979093500380934F03A2
:1005200080914F03909150030196909350038093D4
:100530004F0380914F0390915003893091050CF443
:1005400086CF809146039091470361E773E04AE0CC
:1005500050E00E94F10689ED91E00E946F0081E772
:1005600093E00E946F0088EE91E00E946F008AE0A5
:100570000E946B008DE00E946B001092500310925D
:100580004F0321C0EE0FFF1FEF5AFC4F8081918176
:10059000909388038093870361E773E04AE050E01B
:1005A0000E94F10681E793E00E946F0081EF91E0E5
:1005B0000E946F0080914F03909150030196909399
:1005C000500380934F03E0914F03F09150038091CB
:1005D000460390914703E817F907A4F28AE00E94C6
:1005E0006B008DE00E946B008AE00E946B008DE042
:1005F0000E946B0084E090E090938E0380938D03C3
:10060000DF91CF911F910F9108958091160385BBC3
:1006100083EF91E00E946F008AE00E946B008DE002
:100620000E946B008EE192E00E946F008AE00E94BF
:100630006B008DE00E946B008FE392E00E946F00E0
:100640008AE00E946B008DE00E946B000E94820095
:10065000282F30E0C901C09790933B0380933A0361
:10066000215330402930310568F49093680380931A
:10067000670361E773E04AE050E00E94F10689E514
:1006800092E002C08DE692E00E946F0081E793E065
:100690000E946F008AE00E946B008DE00E946B0058
:1006A00085E090E090938E0380938D038AE00E9412
:1006B0006B008DE00E946B00089585E892E00E9437
:1006C0006F008AE00E946B008DE00E946B008CE757
:1006D00090E00E946F008AE00E946B008DE00E9413
:1006E0006B008CE992E00E946F008091630390910F
:1006F000640361E773E04AE050E00E94F10681E79D
:1007000093E00E946F008AE00E946B008DE00E94DF
:100710006B0085EB92E00E946F008AE00E946B0004
:100720008DE00E946B001092500310924F0321C085
:10073000EE0FFF1FEF5AFC4F808191819093880349
:100740008093870361E773E04AE050E00E94F1067E
:1007500081E793E00E946F0081EF91E00E946F00BB
:1007600080914F0390915003019690935003809392
:100770004F03E0914F03F091500380914603909115
:100780004703E817F907A4F28AE00E946B008DE0A6
:100790000E946B0083EC92E00E946F0080916703DF
:1007A0009091680301979093680380936703FC011D
:1007B000EE0FFF1FED5DFC4F8081918168EE73E0CD
:1007C0000E94A80660938503709386039093430369
:1007D00080934203CB0161E773E04AE050E00E945E
:1007E000F10681E793E00E946F0085EE92E00E949F
:1007F0006F00809142039091430361E773E04AE008
:1008000050E00E94F10681E793E00E946F0087EEBE
:1008100092E00E946F008AE00E946B008DE00E94CF
:100820006B008AE00E946B008DE00E946B0086E006
:1008300090E090938E0380938D030895CF92DF9282
:10084000EF92FF920F931F93CF93DF9310923B038E
:1008500010923A0394E6E92EF12C80E2C82ED12CB6
:1008600093C11092500310924F036DC1EE0FFF1F02
:10087000EF5AFC4F808180934E0380918B039091BF
:100880008C03019690938C0380938B0389EE92E006
:100890000E946F0080918B0390918C0361E773E05D
:1008A0004AE050E00E94F10681E793E00E946F0069
:1008B00082EF92E00E946F0085EF92E00E946F004D
:1008C00080914E0390E061E773E04AE050E00E94BF
:1008D000F10681E793E00E946F0082EF92E00E94B0
:1008E0006F0080914E030E948C00AA2797FDA0956F
:1008F000BA2F8093920390939303A0939403B093A1
:1009000095038DEF92E00E946F0080919203909189
:10091000930361E773E04AE050E00E94F10681E74B
:1009200093E00E946F0083E093E00E946F002091AB
:100930009203309193034091940350919503DA010F
:10094000C90112E0880F991FAA1FBB1F1A95D1F782
:10095000820F931FA41FB51FFAE0B695A795979530
:100960008795FA95D1F780938F0390E061E773E064
:100970004AE050E00E94F10681E793E00E946F0098
:1009800085EE92E00E946F002091920330919303D4
:100990004091940350919503CA01B901E2E0660FBA
:1009A000771F881F991FEA95D1F7620F731F841F65
:1009B000951F20918F03122F110F110F00E0980146
:1009C000442737FD4095542F621B730B840B950B06
:1009D0006093920370939303809394039093950391
:1009E00028EE33E040E050E00E948906DC01CB01B4
:1009F0000AE0B695A795979587950A95D1F79093B4
:100A000041038093400361E773E04AE050E00E94B5
:100A1000F10681E793E00E946F0089E093E00E9475
:100A20006F00E0916703F0916803EE0FFF1FED5D2B
:100A3000FC4F8081918190936A0380936903B70191
:100A40000E94A80670934B0360934A038091900321
:100A500090919103860F971F909391038093900339
:100A6000CAE0D0E0BE010E94A8067093860360939E
:100A7000850390934303809342038EE093E00E94AA
:100A80006F00809185039091860361E773E04AE0EF
:100A900050E00E94F10681E793E00E946F0085EE2E
:100AA00092E00E946F00809142039091430361E7BE
:100AB00073E04AE050E00E94F10681E793E00E9473
:100AC0006F0087EE92E00E946F008AE00E946B0048
:100AD0008DE00E946B0080913A0390913B03019658
:100AE00090933F0380933E03BE010E94A80690931B
:100AF00045038093440370938A0360938903D093E2
:100B00003D03C0933C0380914F03909150030196A5
:100B100090934D0380934C038091690390916A03F5
:100B2000B6010E94A8066093690370936A03CB0123
:100B30000E94AC0080914F039091500301969093D6
:100B4000500380934F03E0914F03F0915003809145
:100B5000460390914703E817F9070CF487CE1092EB
:100B60008A031092890310923D0310923C03109265
:100B70004D0310924C0380913A0390913B030196F0
:100B800090933B0380933A0320913A0330913B03C7
:100B90008091630390916403281739070CF461CEA8
:100BA000DF91CF911F910F91FF90EF90DF90CF9049
:100BB0000895CF93DF930E94860060E875E280E09D
:100BC00090E00E94490084B38FEF84BB85BB90EF17
:100BD00091BB82BB80B710BE88B118B81092860353
:100BE0001092850310923F0310923E031092490326
:100BF000109248031092700310926F0310924703F3
:100C000010924603109268031092670310926A03D1
:100C10001092690310924B0310924A0310929103B1
:100C20001092900310928C0310928B0381E090E05D
:100C300090938E0380938D0310928A031092890300
:100C4000109245031092440310923D0310923C030E
:100C500010924D0310924C03C1E0D0E002C00E94FC
:100C6000F10080918D0390918E038130910519F4EC
:100C7000F6CF0E944C0180918D0390918E038230BB
:100C80009105B9F302C00E94030280918D039091F7
:100C90008E0383309105B9F302C00E940503809151
:100CA0008D0390918E0384309105B9F302C00E94A8
:100CB0005D0380918D0390918E0385309105B9F38A
:100CC00020C00E941E041092450310924403D0934A
:100CD0008E03C0938D0310928C0310928B0310929D
:100CE0006A031092690310924B0310924A03109208
:100CF0009103109290038AE00E946B008DE00E94A5
:100D00006B0080918D0390918E0386309105C9F21E
:100D1000A8CF629FD001739FF001829FE00DF11D6B
:100D2000649FE00DF11D929FF00D839FF00D749F65
:100D3000F00D659FF00D9927729FB00DE11DF91F11
:100D4000639FB00DE11DF91FBD01CF01112408956E
:100D500097FB092E07260AD077FD04D02ED006D0A7
:100D600000201AF4709561957F4F0895F6F79095DD
:100D700081959F4F0895A1E21A2EAA1BBB1BFD016E
:100D80000DC0AA1FBB1FEE1FFF1FA217B307E4076A
:100D9000F50720F0A21BB30BE40BF50B661F771FC2
:100DA000881F991F1A9469F76095709580959095A2
:100DB0009B01AC01BD01CF010895AA1BBB1B51E1F2
:100DC00007C0AA1FBB1FA617B70710F0A61BB70BBB
:100DD000881F991F5A95A9F780959095BC01CD0160
:100DE0000895FB019F01E8944230C4F04532B4F409
:100DF0004A3029F497FB1EF4909581959F4F642FFC
:100E000077270E94DD06805D8A330CF0895D81932F
:100E1000CB010097A1F716F45DE251931082C9014E
:100E20000C941207DC01FC01672F71917723E1F725
:100E3000329704C07C916D9370836291AE17BF07A7
:080E4000C8F30895F894FFCFF8
:100E48005A64616C6E792072656A65737472617434
:100E58006F72206E61706965636961002D2D2D2D9B
:100E68002D2D2D2D2D2D2D2D2D2D2D2D2D2D2D2DAA
:100E78002D2D2D2D2D2D2D0055727563686F6D69E3
:100E8800656E6965202D2053004E61706965636940
:100E980065207072617769646C6F7765004E617068
:100EA8006965636965207A61206E69736B69652C71
:100EB80020646F726567756C756A206E617069650C
:100EC800636965004E69657072617769646C6F77F4
:100ED80061206B6F6D656E6461004B6F6E6669674C
:100EE800757261636A612072656A65737472617490
:100EF8006F726100506F64616A206C69637A626521
:100F080020706F77746F727A656E20736572696985
:100F180020706F6D6961726F7728646F7A776F6C74
:100F28006F6E6520322D3136293A0057706973612A
:100F38006E6F206C69637A62653A20004E6965704D
:100F480072617769646C6F7761206C69637A62613A
:100F580000646F7A776F6C6F6E65206B616E616C81
:100F68007920302C20312C20332C20373B206D6108
:100F78006B73796D616C6E69652039206B616E6188
:100F88006C6F773A006B202D207A616B6F6E637AF5
:100F9800656E6965004B6F6E6965632000577069FF
:100FA80073616E6F206E69657072617769646C6FCA
:100FB8007779206B616E616C0057706973616E6F31
:100FC8002073657269652000206B616E616C6F77B4
:100FD8000020005779626965727A2070727A6564B8
:100FE8007A69616C20637A61737520706F6D6965C9
:100FF800647A7920706F6D696172616D6900312D55
:101008003173202020322D312C357320332D32734B
:10101800202020342D322C357320352D33730036A3
:101028002D332C357320372D3473202020382D3460
:101038002C357320392D35730057796272616E6FC4
:101048002070727A65647A69616C3A20004E69652D
:101058007072617769646C6F77792070727A6564F1
:101068007A69616C00557374616C6F6E6F206B6F79
:101078006E666967757261636A653A004C69637A7E
:10108800626120706F77746F727A656E2073657213
:1010980069693A20005365726961206B616E616C01
:1010A8006F770050727A65647A69616C20637A613F
:1010B8007375206D6965647A7920706F6D696172E6
:1010C800616D693A002C007300506F6D6961723A66
:1010D80020002C20004B616E616C3A200041444393
:1010E8003A20002E20553D200020562C2000743D2B
:1010F800200081CF9286CCA4A08F8084FE7F7FBE03
:10110800DCE800E803DC05D007C409B80BAC0DA087
:061118000F941188130082
:00000001FF
